:10000000758130C201C202C203C204C205C206C267
:1000100007C20AC20CC230C2317850792676000875
:10002000D9FB78609004001202FC90040B120308C4
:10003000D2039004061202FC020071786590040855
:100040001202FC900419120308C203D205900406A0
:100050001202FC02007178679004081202FC9004FE
:1000600024120308C205D2049004061202FC020006
:1000700071740FF5A075A00FE5A0540FB40FF671C1
:100080003FE5A0540FB40F0280F5713FE5A0540F77
:10009000B40F0280EA75A0EFE5A0540FB40F2175EC
:1000A000A0DFE5A0540FB40F1C75A0BFE5A0540F4E
:1000B000B40F1775A07FE5A0540FB40F1202007F94
:1000C000900348800D90034C80089003508003906B
:1000D0000354135003A380FAE493B43D1531522026
:1000E0003005D23002003B203105D23102005602E9
:1000F0000107B4990974017125713F020000F608E7
:100100007132713F02007590040851FC7860E6B4CA
:100110002D03D20608518A85515585526B7867E6C2
:10012000B42D03D20708518A85526C300602D202E0
:10013000300702B2027865E6B42B030201C1B42D88
:1001400005D20A0201C1B42A03020203B42F5B02E2
:100150000230C201200306200507200408785F80D2
:100160000878648004786680007F007E0008E6BF1F
:1001700002028036BE03028031602EB42B030F8052
:100180001DB42D060F20012280E3B42A030F800E38
:10019000B42F030F80080E200510D20180CF20035A
:1001A0000920040620010380C42290040851FC9019
:1001B000043D710890040651FC90044B7108020341
:1001C00014C202856CF0300707200A09D20C8005A2
:1001D000300A02D20CE56B30060E300C04D20280DD
:1001E0000AFFE5F08FF08007200C0425F08003C3A0
:1001F00095F05004F404D202F570787051B551DBDB
:10020000020314AA6CE47F002555D450010FDAF8DC
:10021000F571780751B551DBE57154F0C444307184
:1002200032713FE571540F44307132713F02031453
:100230007400B56C030201AAE56B856CF084F5705F
:1002400085F0719004337108300206742D7132719B
:100250003F787051B5E5557132713FE55671327195
:100260003FE5577132713F90040651FC900437719D
:1002700008787151B5E5557132713FE556713271AB
:100280003FE5577132713F020314E6540FF55008F1
:10029000E6600CE550C4F550E6540F45508002E589
:1002A00050F55154F0C475F00AA4F552E551540FBD
:1002B0002552F55222E675F00A8485F05375F00A4E
:1002C0008485F054540F4430F555E554540F4430B0
:1002D000F556E553540F4430F5572290045C7108ED
:1002E000300206742D7132713FE5557132713FE570
:1002F000567132713FE5577132713F22E4936007C6
:100300007125713FA380F522E49360077132713F3C
:10031000A380F522713F75A00FE5A0540FB40F0222
:1003200080F7020000F590C2B0C2B1D2B2713FC2F4
:10033000B222F590D2B0C2B1D2B2713FC2B2227B2A
:10034000327CFFDCFEDBFA222F3938372A3635348F
:080350002D3332312B3D3099B1
:10040000380E01068000C0000180004669727374D6
:10041000204E756D6265723A004F70657261746945
:100420006F6E3A005365636F6E64204E756D626542
:10043000723A00513A200052454D3A2000496E76FA
:10044000616C696420696E70757400506C656173CD
:10045000652074727920616761696E0052657375F9
:050460006C743A20005D
:00000001FF
